:020000040800F2
:1040000000500020C960000899410008A54100083F
:10401000AD410008B5410008BD41000800000000A6
:10402000000000000000000000000000C541000882
:10403000D141000800000000DD410008E94100080E
:104040001961000819610008196100081961000868
:104050001961000819610008196100081961000858
:104060001961000819610008196100081961000848
:104070001961000819610008196100081961000838
:104080001961000819610008196100081961000828
:104090001961000819610008196100081961000818
:1040A0001961000819610008196100081961000808
:1040B00019610008196100081961000819610008F8
:1040C00019610008196100081961000819610008E8
:1040D000196100080542000819610008196100080B
:1040E000196100081961000819610008000000004A
:1040F00000000000000000000000000000000000C0
:0C41000000000000000000005FF808F163
:10410C000348044B834202D0034B03B1184770475A
:10411C005400002054000020000000000548064B0D
:10412C001B1AD90F01EBA301491002D0034B03B1A9
:10413C001847704754000020540000200000000075
:10414C0010B5064C237843B9FFF7DAFF044B13B1D3
:10415C000448AFF300800123237010BD54000020ED
:10416C0000000000086B000808B5054B1BB10549A1
:10417C000548AFF30080BDE80840FFF7CFBF00BF94
:10418C000000000058000020086B000880B400AF4D
:10419C0000BFBD4680BC704780B400AF00BFFDE7D8
:1041AC0080B400AF00BFFDE780B400AF00BFFDE7F7
:1041BC0080B400AF00BFFDE780B400AF00BFBD46C8
:1041CC0080BC704780B400AF00BFBD4680BC704758
:1041DC0080B400AF00BFBD4680BC704780B400AF58
:1041EC00044B1B680133034A136000BFBD4680BCFF
:1041FC00704700BFA80C002080B582B000AF40F221
:10420C0025510B4801F013FC0346002B0BD008483A
:10421C0001F0E3FB0346DBB2FB71FB1D01221946E7
:10422C00044801F062FD00BF0837BD4680BD00BFE9
:10423C0000380140880200200FB480B5C2B000AF36
:10424C0007F58A7207F58473A3F582731A6007F574
:10425C008473A3F5827307F108001B68D7F810214B
:10426C004FF4807101F082FF07F1080319460548ED
:10427C0000F0B0F900BF07F58477BD46BDE880407B
:10428C0004B070470044004080B500AF0C4801F00A
:10429C009DF90C4B00221A600B4B1B680B4A1360E8
:1042AC000A4B1B68B3F1A53F08D0084B1B68B3F150
:1042BC00FF3F03D0054B4FF0FF321A6000BF80BDAB
:1042CC000040010880020020044001088402002004
:1042DC0080B582B000AF786001F058F9342001F05D
:1042EC00F1F97968044801F0A3F901F061F900BF14
:1042FC000837BD4680BD00BF0040010880B582B0C4
:10430C0000AF78607B68B3F1FF3F03D07B68B3F1FB
:10431C00A53F0BD101F03AF9342001F0D3F97968BB
:10432C00044801F085F901F043F900E000BF0837BB
:10433C00BD4680BD0440010880B500AF00F042FDD1
:10434C0000F068F9FFF7A0FF0248FFF775FF00BF08
:10435C0080BD00BF6C6B000880B500AF00F02AF880
:10436C004FF40051074801F0CFF8FA2000F0E4FBBD
:10437C004FF40051034801F0B9F8FA2000F0DCFBCF
:10438C0000BF80BD0010014080B400AFBFF34F8F61
:10439C0000BF064BDB6803F4E0620449044B134393
:1043AC00CB60BFF34F8F00BF00BFFDE700ED00E017
:1043BC000400FA0580B582B000AF6AE03C4B1B7874
:1043CC00022B42D13B4B1B885A1C91B2394A1180AB
:1043DC001A46F979384B9954384B1B680133374AD4
:1043EC001360344B1B88B3F5007F05D0334B1A6830
:1043FC00334B1B689A421ED12E4B1B881946314BEE
:10440C001B681A463048FFF717FF2E4B1B68294ACA
:10441C0012882949184600F0ABF92C48FFF70CFF1D
:10442C00244B1B881A46274B1B681344254A1360E0
:10443C00204B00221A80214B1A68214B1B689A4290
:10444C0026D31B4B03221A7022E0214B1B8840F20F
:10445C00FE4293420CD8FB79FF2B09D01C4B1B88D6
:10446C005A1C91B21A4A11801A46F979194B99546F
:10447C00FB790A2B0DD1164B1B881A46154B0021C4
:10448C009954144800F02AF8114B00221A8000E0CD
:10449C0000BFFB1D012219460F4801F0D9FC034651
:1044AC00002B8BD100BF00BF0837BD4680BD00BFBD
:1044BC00700000207C0200207C000020780000208E
:1044CC0074000020A40C0020806B0008A06B000876
:1044DC00A00C0020A00700208802002080B582B02C
:1044EC0000AF78602E49786801F05BFE0346002B24
:1044FC0016D079682B48FFF79FFE2B4B01221A70C0
:10450C002A4B00221A602A4B00221A60294B0022E7
:10451C001A6000F0C7F82849284800F05BF83BE027
:10452C002749786801F03DFE0346002B22D07868BD
:10453C0001F091FB03461D4A13601C4B1B68002BBA
:10454C0029D01A4B1B681846FFF7C2FE174B1B6885
:10455C0019461C48FFF770FE1B4B00221A80144BA7
:10456C0000221A601949154800F034F80E4B02224B
:10457C001A7011E01649786801F013FE0346002BFF
:10458C000AD0094B03221A704FF0A530FFF7B6FE84
:10459C00FFF7FAFE00E000BF0837BD4680BD00BF44
:1045AC00B06B0008BC6B0008700000207400002089
:1045BC0078000020A40C0020C06B000800380140DB
:1045CC00D06B0008DC6B00087C020020F06B00084C
:1045DC00006C000880B582B000AF786039600FE0E5
:1045EC003B685A1C3A601B781946786801F0E4F96C
:1045FC0000BF8021786801F0FFF90346002BF8D04A
:10460C003B681B78002BEBD100BF00BF0837BD46C1
:10461C0080BD000080B500AF4FF4A0620249034892
:10462C0001F033FB00BF80BDA002002088020020F7
:10463C0080B582B000AF1021094800F065FF05205D
:10464C0000F0C6F8FF2000F0C3F80346FB71102100
:10465C00034800F04BFFFB7918460837BD4680BD78
:10466C000008014080B500AF00BFFFF7E1FF034633
:10467C0003F00103002BF8D100BF00BF80BD000088
:10468C0080B500AF1021064800F03EFF062000F078
:10469C009FF81021024800F029FF00BF80BD00BF29
:1046AC000008014080B500AFFFF7DCFFFFF7E8FF23
:1046BC001021074800F028FFC72000F089F81021CE
:1046CC00034800F013FFFFF7CDFF00BF80BD00BF14
:1046DC000008014080B586B000AFF860B9601346A1
:1046EC00FB80FB88B3F5807F02D94FF48073FB808D
:1046FC00FFF7B8FFFFF7C4FF10211C4800F004FFC0
:10470C00022000F065F8FB681B0C9BB2DBB29BB27D
:10471C00184600F05DF8FB681B0A9BB2DBB29BB23B
:10472C00184600F055F8FB689BB2DBB29BB21846FA
:10473C0000F04EF80023FB8209E0FB8ABA681344B0
:10474C001B78184600F044F8FB8A0133FB82FA8A86
:10475C00FB889A42F1D31021044800F0C7FEFFF702
:10476C0081FF00BF1837BD4680BD00BF0008014067
:10477C0080B588B000AFF860B9607A601FE0FB6864
:10478C00DBB2FB61FB69C3F58073BB61BA697B6803
:10479C00934228BF13467B617B699BB21A46B9686A
:1047AC00F868FFF797FFFA687B691344FB60BA68F7
:1047BC007B691344BB607A687B69D31A7B607B6826
:1047CC00002BDCD100BF00BF2037BD4680BD0000F0
:1047DC0080B582B000AF0346FB8000BF02210D48BC
:1047EC0001F0FBF90346002BF8D0FB881946094869
:1047FC0001F0D9F900BF0121064801F0EEF903469A
:10480C00002BF8D0034801F0DCF9034618460837B2
:10481C00BD4680BD0030014080B500AF154B1B6814
:10482C00144A43F001031360124B5A681149124B9E
:10483C0013404B600F4B1B680E4A23F0847323F418
:10484C00803313600B4B1B680A4A23F480231360DC
:10485C00084B5B68074A23F4FE035360054B4FF487
:10486C001F029A6000F07EF8044B4FF000629A60D1
:10487C0000BF80BD001002400000FFF800ED00E01A
:10488C0080B485B000AF0023FB600023BB60002325
:10489C007B602F4B5B6803F00C03FB60FB68082B01
:1048AC0011D0FB68082B3AD8FB68002B03D0FB68AF
:1048BC00042B04D033E0274B274A1A6033E0254BF6
:1048CC00254A1A602FE0224B5B6803F47013BB601F
:1048DC001F4B5B6803F480337B60BB689B0C02331B
:1048EC00BB607B68002B06D1BB681C4A02FB03F340
:1048FC00184A136017E0164B5B6803F40033002B67
:10490C0006D0BB68154A02FB03F3124A13600AE097
:10491C00BB68114A02FB03F30E4A136003E00D4B14
:10492C000D4A1A6000BF0A4B5B681B0903F00F03AA
:10493C000B4AD35CDBB2FB60064B1A68FB6822FAAD
:10494C0003F3044A136000BF1437BD4680BC7047A4
:10495C00001002400000002000127A0000093D0007
:10496C00446C000880B500AF00F002F800BF80BDB9
:10497C0080B483B000AF00237B6000233B603A4BD4
:10498C001B68394A43F480331360374B1B6803F4BC
:10499C0000333B607B6801337B603B68002B03D1A9
:1049AC007B68B3F5A06FF0D12F4B1B6803F4003379
:1049BC00002B02D001233B6001E000233B603B68ED
:1049CC00012B4BD1294B1B68284A43F01003136071
:1049DC00264B1B68254A23F003031360234B1B68EB
:1049EC00224A43F0020313601F4B1F4A5B6853605B
:1049FC001D4B1D4A5B6853601B4B5B681A4A43F4A2
:104A0C0080635360184B5B68174A23F47C13536024
:104A1C00154B5B68144A43F4E8135360124B1B6844
:104A2C00114A43F08073136000BF0F4B1B6803F0F7
:104A3C000073002BF9D00C4B5B680B4A23F003037B
:104A4C005360094B5B68084A43F00203536000BF94
:104A5C00054B5B6803F00C03082BF9D100BF0C3736
:104A6C00BD4680BC704700BF0010024000200240D1
:104A7C0080B483B000AF03463960FB7197F90730FF
:104A8C00002B0BDA3B68DAB20C49FB7903F00F030D
:104A9C00043B1201D2B20B441A7609E03B68DAB23D
:104AAC00074997F907301201D2B20B4483F800235F
:104ABC0000BF0C37BD4680BC704700BF00ED00E066
:104ACC0000E100E080B582B000AF78607B68B3F1A4
:104ADC00807F01D3012311E07B6823F07F43094AD7
:104AEC00013B53600F214FF0FF30FFF7C1FF054B27
:104AFC0000229A60034B07221A60002318460837DD
:104B0C00BD4680BD10E000E080B582B000AF78609B
:104B1C00084B1A687B68B2FBF3F31846FFF7D2FF19
:104B2C000346002B01D000BFFDE700BF0837BD4690
:104B3C0080BD00BF0000002080B485B000AF78605D
:104B4C00084B1B68FB6000BF064B1A68FB68D31A46
:104B5C007A689A42F8D800BF00BF1437BD4680BCB3
:104B6C00704700BFA80C002080B586B000AF0121B3
:104B7C00042000F027FB01214FF4003000F040FB33
:104B8C000423BB820323BB751823FB7507F11403A5
:104B9C001946134800F0EEFB0823BB820423FB7577
:104BAC0007F1140319460E4800F0E4FB4FF4E1330F
:104BBC007B6000233B8100237B810023BB8100238E
:104BCC003B820C23FB813B1D1946064800F0D4FDAB
:104BDC000121044800F08AFE00BF1837BD4680BD95
:104BEC00000801400044004090B589B000AF01219D
:104BFC0044F2040000F0E6FA194B1B68FB6107F164
:104C0C001C031946174800F0B5FB174B1B68BB611A
:104C1C0007F118031946134800F0ACFB134B07F1CE
:104C2C0008040FCB84E80F0007F10803194610485D
:104C3C0000F0A2FD012240F225510D4800F075FE56
:104C4C000C4B1B687B603B1D184600F031FB0121AF
:104C5C00074800F04BFE00BF2437BD4690BD00BF97
:104C6C00086C0008000801400C6C0008106C00086F
:104C7C0000380140206C0008B0B588B000AF0121AD
:104C8C0041F2040000F09EFA194B1B68FB61194BB2
:104C9C001B68BB61184B1B687B6107F11C03194631
:104CAC00164800F067FB07F118031946134800F08B
:104CBC0061FB07F114031946104800F05BFB10214F
:104CCC000E4800F013FC0E4B3C461D460FCD0FC496
:104CDC002B6823803B4619460A4800F002FF01214D
:104CEC00084800F041FF00BF2037BD46B0BD00BFF3
:104CFC00246C0008286C00082C6C0008000801408B
:104D0C00306C00080030014080B582B000AF00F07C
:104D1C0073F84FF4803000F09DF800F0C9F80346AA
:104D2C00FB71FB79012B28D1102000F017FC02201D
:104D3C0000F0F8FB002000F03BF9002000F070F9C7
:104D4C004FF4806000F050F94FF4E0114FF48030D4
:104D5C0000F0D6F8012000F0F1F800BF392000F087
:104D6C006DFA0346002BF9D0022000F0F7F800BFD3
:104D7C0000F010F90346082BFAD1FFF781FD00BFB4
:104D8C000837BD4680BD000080B582B000AF012160
:104D9C00102000F017FA4FF40053BB800223BB71B4
:104DAC001023FB713B1D1946054800F0E3FA4FF444
:104DBC000051034800F09AFB00BF0837BD4680BD88
:104DCC000010014080B500AF094B0A4A9A60FFF70A
:104DDC009BFF4FF47A70FFF797FEFFF74DFFFFF73D
:104DEC0003FFFFF7C1FEFFF7CFFF00BF80BD00BF81
:104DFC0000ED00E00040000880B400AF134B1B68CE
:104E0C00124A43F001031360104B5A680F49104BC0
:104E1C0013404B600D4B1B680C4A23F0847323F436
:104E2C0080331360094B1B68084A23F480231360FA
:104E3C00064B5B68054A23F4FE035360034B4FF4A7
:104E4C001F029A6000BFBD4680BC70470010024034
:104E5C000000FFF880B483B000AF7860134B1B6880
:104E6C00124A23F480331360104B1B680F4A23F44F
:104E7C00802313607B68B3F5803F04D07B68B3F567
:104E8C00802F07D00DE0094B1B68084A43F4803390
:104E9C00136006E0054B1B68044A43F4A02313601F
:104EAC0000BF00BF0C37BD4680BC704700100240ED
:104EBC0080B582B000AF00233B600023FB71002360
:104ECC00BB71312000F0BAF90346BB713B6801336A
:104EDC003B603B68B3F5A06F02D0BB79002BF0D0E0
:104EEC00312000F0ABF90346002B02D00123FB71FB
:104EFC0001E00023FB71FB7918460837BD4680BDE5
:104F0C0080B485B000AF786039600023FB600A4B39
:104F1C005B68FB60FB6823F47C13FB607A683B687E
:104F2C001343FA681343FB60034AFB68536000BFEA
:104F3C001437BD4680BC70470010024080B483B06B
:104F4C0000AF0346FB71044AFB79136000BF0C37BA
:104F5C00BD4680BC704700BF6000424280B485B043
:104F6C0000AF78600023FB60094B5B68FB60FB685B
:104F7C0023F00303FB60FA687B681343FB60044A6D
:104F8C00FB68536000BF1437BD4680BC704700BF40
:104F9C000010024080B400AF044B5B68DBB203F03E
:104FAC000C03DBB21846BD4680BC704700100240B3
:104FBC0080B485B000AF78600023FB60094B5B6860
:104FCC00FB60FB6823F0F003FB60FA687B6813431B
:104FDC00FB60044AFB68536000BF1437BD4680BCBD
:104FEC00704700BF0010024080B485B000AF7860FD
:104FFC000023FB60094B5B68FB60FB6823F4E063F8
:10500C00FB60FA687B681343FB60044AFB685360DF
:10501C0000BF1437BD4680BC704700BF0010024073
:10502C0080B485B000AF78600023FB60094B5B68EF
:10503C00FB60FB6823F46053FB607B68DB00FA6861
:10504C001343FB60034AFB68536000BF1437BD4633
:10505C0080BC70470010024080B487B000AF78600D
:10506C0000237B6100233B610023FB600023BB60BA
:10507C004F4B5B6803F00C037B617B69082B11D0F1
:10508C007B69082B3AD87B69002B03D07B69042BF6
:10509C0004D033E07B68474A1A6033E07B68454AAA
:1050AC001A602FE0424B5B6803F470133B61404B7A
:1050BC005B6803F48033FB603B699B0C02333B6100
:1050CC00FB68002B06D13B693B4A03FB02F27B6871
:1050DC001A6017E0364B5B6803F40033002B06D0E4
:1050EC003B69354A03FB02F27B681A600AE03B69B4
:1050FC00304A03FB02F27B681A6003E07B682D4A9E
:10510C001A6000BF2A4B5B6803F0F0037B617B697C
:10511C001B097B61294A7B6913441B78DBB2BB609A
:10512C007B681A68BB68DA407B685A60204B5B6806
:10513C0003F4E0637B617B691B0A7B611F4A7B691B
:10514C0013441B78DBB2BB607B685A68BB68DA40DF
:10515C007B689A60164B5B6803F460537B617B69D8
:10516C00DB0A7B61154A7B6913441B78DBB2BB609D
:10517C007B685A68BB68DA407B68DA600C4B5B680A
:10518C0003F440437B617B699B0B7B610C4A7B691D
:10519C0013441B78DBB2BB607B68DA68BB68B2FB7C
:1051AC00F3F27B681A6100BF1C37BD4680BC7047A8
:1051BC000010024000127A0000093D00546C0008F7
:1051CC00646C000880B483B000AF78600B46FB7051
:1051DC00FB78002B06D0094B9A6908497B6813436E
:1051EC008B6106E0054B9A697B68DB4303491340EE
:1051FC008B6100BF0C37BD4680BC7047001002406D
:10520C0080B483B000AF78600B46FB70FB78002B4A
:10521C0006D0094BDA6908497B681343CB6106E079
:10522C00054BDA697B68DB4303491340CB6100BF54
:10523C000C37BD4680BC70470010024080B487B06C
:10524C0000AF0346FB710023FB6000237B6100234E
:10525C00FB74FB795B09DBB2FB60FB68012B03D1B0
:10526C00124B1B687B6109E0FB68022B03D10F4BCF
:10527C001B6A7B6102E00D4B5B6A7B61FB7903F07F
:10528C001F03FB607A69FB6822FA03F303F0010346
:10529C00002B02D00123FB7401E00023FB74FB7C88
:1052AC0018461C37BD4680BC704700BF001002403A
:1052BC0080B487B000AF786000237B6100233B6132
:1052CC000F23FB607B68DB78002B3AD0274BDB6825
:1052DC00DB431B0A03F007037B617B69C3F1040307
:1052EC003B61FA687B6922FA03F3FB607B685B78AD
:1052FC001A463B6902FA03F37B617B689B781A467A
:10530C00FB6813407A6913437B617B691B017B61EA
:10531C00174A7B681B787969C9B213440A4683F82B
:10532C0000237B681B7803F01F0311497A681278FD
:10533C005209D2B21046012202FA03F341F820308E
:10534C000FE07B681B7803F01F0309497A68127819
:10535C005209D2B2104601229A4000F1200341F8C2
:10536C00232000BF1C37BD4680BC704700ED00E019
:10537C0000E100E080B489B000AF786039600023B0
:10538C00FB6100233B610023BB610023FB60002316
:10539C007B610023BB603B68DB7803F00F03FB6190
:1053AC003B68DB7803F01003002B05D03B689B783F
:1053BC001A46FB691343FB613B681B88DBB2002B6D
:1053CC0044D07B681B687B610023BB6138E0012201
:1053DC00BB6902FA03F3FB603B681B881A46FB6847
:1053EC0013403B613A69FB689A4226D1BB699B002A
:1053FC00FB600F22FB6802FA03F3BB60BB68DB4364
:10540C007A6913407B61FA69FB6802FA03F37A69E3
:10541C0013437B613B68DB78282B05D10122BB69E8
:10542C009A407B685A6108E03B68DB78482B04D1D2
:10543C000122BB699A407B681A61BB690133BB616D
:10544C00BB69072BC3D97B687A691A603B681B88D8
:10545C00FF2B46D97B685B687B610023BB613AE01C
:10546C00BB690833012202FA03F3FB603B681B881B
:10547C001A46FB6813403B613A69FB689A4227D194
:10548C00BB699B00FB600F22FB6802FA03F3BB6055
:10549C00BB68DB437A6913407B61FA69FB6802FAEB
:1054AC0003F37A6913437B613B68DB78282B05D1C6
:1054BC00BB69083301229A407B685A613B68DB78F0
:1054CC00482B05D1BB69083301229A407B681A61CD
:1054DC00BB690133BB61BB69072BC1D97B687A6996
:1054EC005A6000BF2437BD4680BC704780B483B07F
:1054FC0000AF78600B467B807A887B681A6100BFAE
:10550C000C37BD4680BC704780B483B000AF786068
:10551C000B467B807A887B685A6100BF0C37BD468E
:10552C0080BC704780B485B000AF78600023FB600E
:10553C00094B1B68FB60FB6803F03803FB60FA68DF
:10554C007B681343FB60044AFB68136000BF14378D
:10555C00BD4680BC704700BF0020024080B483B0C1
:10556C0000AF7860084B1B68074A23F010031360E8
:10557C00054B1A6804497B6813430B6000BF0C375A
:10558C00BD4680BC704700BF0020024080B400AF15
:10559C00044B054A5A60034B044A5A6000BFBD468F
:1055AC0080BC70470020024023016745AB89EFCDDA
:1055BC0080B400AF044B1B69034A43F080031361B2
:1055CC0000BFBD4680BC70470020024080B584B04F
:1055DC0000AF78600423FB734FF4302000F0AAF87E
:1055EC000346FB73FB7B042B1BD1104B1B690F4A2F
:1055FC0043F0020313610D4A7B6853610B4B1B692B
:10560C000A4A43F0400313614FF4302000F092F843
:10561C000346FB73054B1A69044941F6FD731340AD
:10562C000B61FB7B18461037BD4680BD0020024045
:10563C0080B584B000AF786039600423FB7300231D
:10564C00BB604FF4005000F075F80346FB73FB7B16
:10565C00042B2FD11A4B1B69194A43F00103136118
:10566C007B683A6892B21A804FF4005000F062F8EE
:10567C000346FB73FB7B042B15D17B680233BB60A9
:10568C003B681A0CBB6892B21A804FF4005000F0C1
:10569C0051F80346FB730A4B1A69094941F6FE732C
:1056AC0013400B6106E0064B1A69054941F6FE737F
:1056BC0013400B61FB7B18461037BD4680BD00BF05
:1056CC000020024080B483B000AF7860034A7B684E
:1056DC00D36000BF0C37BD4680BC70470020024031
:1056EC0080B483B000AF0423FB71114BDB6803F073
:1056FC000103012B02D10123FB7113E00C4BDB687E
:10570C0003F00403002B02D00223FB710AE0084BC8
:10571C00DB6803F01003002B02D00323FB7101E0C4
:10572C000423FB71FB7918460C37BD4680BC7047CF
:10573C000020024080B584B000AF78600423FB7376
:10574C00FFF7CEFF0346FB7306E0FFF7C9FF0346E6
:10575C00FB737B68013B7B60FB7B012B02D17B687D
:10576C00002BF2D17B68002B01D10523FB73FB7B53
:10577C0018461037BD4680BD80B58CB000AF786040
:10578C0039600023FB620023BB6200237B62002391
:10579C003B620023FB617B68FB617B681B8A9BB2CD
:1057AC00FB62FA6A4CF6FF731340FB623B68DB88C2
:1057BC001A46FB6A1343FB62FB6A9AB27B681A8235
:1057CC007B689B899BB2FB62FA6A4EF6F31313401B
:1057DC00FB623B689A883B681B8913439AB23B680F
:1057EC005B8913439BB21A46FB6A1343FB62FB6A49
:1057FC009AB27B689A817B689B8A9BB2FB62FA6A3D
:10580C004FF6FF431340FB623B689B891A46FB6AC9
:10581C001343FB62FB6A9AB27B689A8207F1080316
:10582C001846FFF719FCFB692E4A934202D17B699B
:10583C00BB6201E03B69BB627B689B899BB21BB27C
:10584C00002B0CDABA6A13469B0013449A001A44D4
:10585C003B681B685B00B2FBF3F37B620BE0BA6A3C
:10586C0013469B0013449A001A443B681B689B0028
:10587C00B2FBF3F37B627B6A1B4AA2FB03235B093B
:10588C001B01FB62FB6A1B09642202FB03F37A6AAD
:10589C00D31A3B627B689B899BB21BB2002B0CDA40
:1058AC003B6ADB003233104AA2FB03235B0903F093
:1058BC000703FA6A1343FB620BE03B6A1B013233AA
:1058CC00094AA2FB03235B0903F00F03FA6A134393
:1058DC00FB62FB6A9AB27B681A8100BF3037BD4607
:1058EC0080BD00BF003801401F85EB5180B483B0F0
:1058FC0000AF78600B46FB70FB78002B08D07B6800
:10590C009B899BB243F400539AB27B689A8107E05F
:10591C007B689B899BB223F400539AB27B689A8173
:10592C0000BF0C37BD4680BC704780B487B000AF59
:10593C0078600B467B8013467B7000233B61002311
:10594C00FB600023BB6000237B617B687B617B88F1
:10595C00DBB25B09DBB23B617B8803F01F03FB60AE
:10596C000122FB6802FA03F3BB603B69012B03D1F4
:10597C007B690C337B6109E03B69022B03D17B69AA
:10598C0010337B6102E07B6914337B617B78002BE5
:10599C0006D07B6919687B69BA680A431A6006E00D
:1059AC007B691968BB68DA437B690A401A6000BFDF
:1059BC001C37BD4680BC704780B483B000AF7860A4
:1059CC000B467B807B88C3F308039AB27B689A8072
:1059DC0000BF0C37BD4680BC704780B483B000AFAD
:1059EC0078607B689B889BB2C3F308039BB2184614
:1059FC000C37BD4680BC704780B485B000AF786072
:105A0C000B467B800023FB737B681B889AB27B88D8
:105A1C0013409BB2002B02D00123FB7301E0002347
:105A2C00FB73FB7B18461437BD4680BC704780B4B3
:105A3C0087B000AF78600B467B800023FB600023AF
:105A4C007B610023BB600023FB747B88DBB25B09AA
:105A5C00DBB2BB607B8803F01F037B6101227B6997
:105A6C0002FA03F37B61BB68012B07D17B689B892E
:105A7C009BB21A467B6913407B6111E0BB68022B19
:105A8C0007D17B681B8A9BB21A467B6913407B61EA
:105A9C0006E07B689B8A9BB21A467B6913407B614C
:105AAC007B881B0A9BB2FB600122FB6802FA03F3A2
:105ABC00FB607B681B889BB21A46FB681340FB603B
:105ACC007B69002B05D0FB68002B02D00123FB74F3
:105ADC0001E00023FB74FB7C18461C37BD4680BCE0
:105AEC00704780B485B000AF786039600023FB81CB
:105AFC007B681B88FB81FB8903F44153FB813B686A
:105B0C001A883B685B8813439AB23B689B881343A3
:105B1C009AB23B68DB8813439AB23B681B891343E8
:105B2C009AB23B685B8913439AB23B689B891343D7
:105B3C009AB23B68DB8913439AB2FB891343FB810E
:105B4C007B68FA891A807B689B8B9BB223F4006379
:105B5C009AB27B689A833B681A8A7B681A8200BF68
:105B6C001437BD4680BC704780B483B000AF7860FA
:105B7C000B46FB70FB78002B08D07B681B889BB214
:105B8C0043F040039AB27B681A8007E07B681B885D
:105B9C009BB223F040039AB27B681A8000BF0C378B
:105BAC00BD4680BC704780B483B000AF78600B46B4
:105BBC007B807B687A889A8100BF0C37BD4680BC9D
:105BCC00704780B483B000AF78607B689B899BB2D0
:105BDC0018460C37BD4680BC704780B485B000AF0A
:105BEC0078600B467B800023FB737B681B899AB221
:105BFC007B8813409BB2002B02D00123FB7301E086
:105C0C000023FB73FB7B18461437BD4680BC7047E2
:105C1C0080B485B000AF78600023FB600DE0FA68BB
:105C2C0013469B0013445B001A467B681B78134495
:105C3C00303BFB607B6801337B607B681B782F2BD0
:105C4C0003D97B681B78392BE9D9FB6818461437C4
:105C5C00BD4680BC704780B584B000AF78603A21F7
:105C6C00786800F091FAF860FB68002B01D10023F2
:105C7C0007E0FB680133FB60F868FFF7C9FF0346D8
:105C8C0000BF18461037BD4680BD80B489B000AF48
:105C9C00F860B9607A60FB68002B05D0BB68002BFC
:105CAC0002D07B68002B01D1002319E0FB68002295
:105CBC001A61FB687A685A60FB68BA681A60FB68FC
:105CCC000C33FB6100237B617A69FB691A60FB680A
:105CDC000833BB6100233B613A69BB691A6001233D
:105CEC0018462437BD4680BC704780B588B002AFDB
:105CFC00F860B9607A6000237B6107F1140300221D
:105D0C0000927A68B968F86800F00AF80346002B2C
:105D1C0001D07B6900E0002318461837BD4680BDD2
:105D2C0080B58CB000AFF860B9607A603B6000233E
:105D3C00BB6200237B620023FB62BB683B62FB6897
:105D4C00002B0DD0FB681B68002B09D0FB685B682F
:105D5C00002B05D0BB68002B02D07B68002B01D137
:105D6C00002371E0F86800F026F978627B6A002B5A
:105D7C0008D07A6A7B689A4206D23B8F03F0010303
:105D8C00002B01D000235FE07A687B6A934228BF26
:105D9C0013467B60FB680C33FB61FB691B68BFF32C
:105DAC005B8F7B617B69FB62FB685A68FB6AD31A69
:105DBC007A68934228BF1346BB62FB681A68FB6A79
:105DCC001344BA6A396A184600F028FA3A6ABB6A70
:105DDC0013443B62FA6ABB6A1344FB627A68BB6A7F
:105DEC00D31A7B607B68002B08D0FB681B687A6831
:105DFC00396A184600F012FA7B68FB62FB685B6834
:105E0C00FA6A9A4201D30023FB62FB680C33BB6134
:105E1C00FB6A3B613A69BB69BFF35B8F1A60FB6835
:105E2C001B69002B07D0FB681B69B96A7A680A44A6
:105E3C000121F86898473B68002B04D0BA6A7B684C
:105E4C001A443B681A60012318463037BD4680BDA2
:105E5C0080B588B002AFF860B9607A6000237B61CE
:105E6C0007F11403002200927A68B968F86800F010
:105E7C000AF80346002B01D07B6900E0002318468A
:105E8C001837BD4680BD80B58CB000AFF860B960E6
:105E9C007A603B600023BB6200237B620023FB62C1
:105EAC00BB683B62FB68002B0DD0FB681B68002BAA
:105EBC0009D0FB685B68002B05D0BB68002B02D0B7
:105ECC007B68002B01D1002371E0F86800F0B1F879
:105EDC0078627B6A002B08D07A6A7B689A4206D279
:105EEC003B8F03F00103002B01D000235FE07A68A5
:105EFC007B6A934228BF13467B60FB680833FB61C7
:105F0C00FB691B68BFF35B8F7B617B69FB62FB6882
:105F1C005A68FB6AD31A7A68934228BF1346BB624D
:105F2C00FB681A68FB6A1344BA6A1946386A00F0AF
:105F3C0075F93A6ABB6A13443B62FA6ABB6A13444A
:105F4C00FB627A68BB6AD31A7B607B68002B08D033
:105F5C00FB681B687A681946386A00F05FF97B6841
:105F6C00FB62FB685B68FA6A9A4201D30023FB620E
:105F7C00FB680833BB61FB6A3B613A69BB69BFF3E1
:105F8C005B8F1A60FB681B69002B07D0FB681B69D1
:105F9C00B96A7A680A440021F86898473B68002B74
:105FAC0004D0BA6A7B681A443B681A60012318460D
:105FBC003037BD4680BD80B48BB000AF7860002315
:105FCC007B6200233B620023FB617B68002B07D0C4
:105FDC007B681B68002B03D07B685B68002B01D1AE
:105FEC00002321E07B680C33BB61BB691B683B6100
:105FFC003B693B627B6808337B617B691B68FB6098
:10600C00FB68FB613A6AFB699A4207D37B685A6862
:10601C00F9693B6ACB1A13447B6203E0FA693B6A69
:10602C00D31A7B627B6A013B18462C37BD4680BC79
:10603C00704780B48BB000AF786000237B62002384
:10604C003B620023FB617B68002B07D07B681B68DD
:10605C00002B03D07B685B68002B01D1002320E070
:10606C007B680C33BB61BB691B683B613B693B6262
:10607C007B6808337B617B691B68FB60FB68FB6199
:10608C003A6AFB699A4204D33A6AFB69D31A7B6277
:10609C0006E07B685A68396AFB69CB1A13447B6249
:1060AC007B6A18462C37BD4680BC704780B500AF64
:1060BC00FEF742F9FEF750F9FCE70000DFF834D0A8
:1060CC00002103E00C4B5B58435004310B480C4B44
:1060DC0042189A42F6D30B4A02E0002342F8043BE2
:1060EC00094B9A42F9D3FEF797FB00F071F8FFF7D2
:1060FC00DDFF704700500020A46C00080000002059
:10610C005400002054000020F80D0020FEE730B5AC
:10611C001446002C05461A469BB005DA8B23036007
:10612C004FF0FF301BB030BD4FF40273ADF80C30A4
:10613C004FF0000319930CBF234604F1FF33029375
:10614C0005934FF6FF7300910491ADF80E3069463C
:10615C001E9B00F0C7F9431CBCBF8B232B60002C8B
:10616C00E0D00022009B1A70DCE7000007B500931A
:10617C0013460A46014603480068FFF7C8FF03B000
:10618C005DF804FB040000200346C9B2184613F85E
:10619C00012B12B18A42F9D17047002918BF002097
:1061AC0070470A7870B56AB970BD9A4209D10C462D
:1061BC00054614F8013F002BF6D015F8016F9E42EE
:1061CC00F7D001300378002BEFD11846ECE7000034
:1061DC0070B500260C4D0D4B5B1B9C10A64209D1D3
:1061EC00002600F08BFC0A4D0A4B5B1B9C10A64250
:1061FC0005D170BD55F8043B98470136EEE755F8CC
:10620C00043B98470136F2E79C6C00089C6C000834
:10621C009C6C0008A06C0008704770470A449142BF
:10622C0000F1FF3300D1704710B511F8014B9142CA
:10623C0003F8014FF9D110BD38B50546002940D0FF
:10624C0051F8043C0C1F002BB8BFE41800F0DEF82A
:10625C001C4A136833B9636014602846BDE83840A3
:10626C0000F0DAB8A34208D9206821188B4201BF8C
:10627C0019685B6809182160EDE71A465B680BB179
:10628C00A342FAD911685018A0420BD120680144DE
:10629C00501883421160E0D118685B6808441060A4
:1062AC005360DAE702D90C232B60D6E7206821185B
:1062BC008B4201BF19685B680918216063605460E8
:1062CC00CBE738BDF00D002070B50F4E0C46316891
:1062DC00054611B900F0B0FB30602146284600F0AD
:1062EC00ABFB431C03D14FF0FF34204670BDC41CE4
:1062FC0024F00304A042F8D0211A284600F09CFB9D
:10630C000130F2D1EFE700BFEC0D00202DE9F8438E
:10631C00CD1C25F0030508350C2D38BF0C25002DA0
:10632C00064601DBA94204D90C2333600020BDE8EA
:10633C00F883DFF8D48000F069F8D8F800301C46F8
:10634C0044BB29463046FFF7BFFF431C044658D1D7
:10635C00D8F800402746002F43D1002C4BD023689F
:10636C003946304604EB030900F066FB814542D107
:10637C00216830466D1A2946FFF7A6FF01303AD046
:10638C0023682B442360D8F800305A6862BBC8F8E5
:10639C0000700FE02268521B20D40B2A17D9611908
:1063AC00A342256018BF5960636808BFC8F8001085
:1063BC0062514B60304600F02FF804F10B00231DA6
:1063CC0020F00700C21A1CBF1B1AA350AFE762686B
:1063DC00A3420CBFC8F800205A60EBE72346646860
:1063EC00AEE73C467F68B6E71A465B68A342FBD132
:1063FC0000235360DEE70C233046336000F00CF8CA
:10640C0094E70560D6E700BFF00D00200148FFF7C8
:10641C0003BF00BFE80D00200148FFF7FEBE00BF20
:10642C00E80D00202DE9F0471F468E688246BE42DB
:10643C000C469046334653D8B1F90C0010F4906FCB
:10644C002BD065692368096905EB4505A3EB0109A8
:10645C0005EBD5757B1C6D104B44AB422A4684BFB3
:10646C001D462A46430527D511465046FFF74EFFD9
:10647C00064658B34A462169FFF7D0FEA38923F498
:10648C00906343F08003A38126614E4426603B4613
:10649C003E466561A5EB0905A5601F463A46414697
:1064AC00206800F0AFFA0020A3689B1BA360236850
:1064BC003B442360BDE8F087504600F0DBFA06460B
:1064CC000028E1D150462169FFF7B6FE0C23CAF82B
:1064DC000030A3894FF0FF3043F04003A381E9E77C
:1064EC003E46DBE72DE9F0471F468B8906461B0627
:1064FC000D4614469CB010D50B6973B94021FFF7BB
:10650C0005FF2860286130B90C2333604FF0FF3051
:10651C001CB0BDE8F08740236B6100230993202356
:10652C008DF8293030234FF001080397644F8DF814
:10653C002A302346994613F8012B0AB1252AF9D1A2
:10654C00B9EB040A0BD05346224629463046FFF7D6
:10655C0069FF013000F0A480099A5244099299F81D
:10656C000030002B00F09C8000234FF0FF32CDE96F
:10657C00052309F10109049307938DF853301A93FD
:10658C004C46052214F8011B4D4800F065FA049B9B
:10659C00D0B9D80644BF20228DF85320190744BF28
:1065AC002B228DF8532099F800202A2A13D04C4620
:1065BC0000204FF00A0C079A214611F8013B303BA2
:1065CC00092B49D968B913E0C01B08FA00F018432D
:1065DC00A1460490D4E7039A111D12680391002A76
:1065EC0001DB079204E0524243F00203079204934A
:1065FC0023782E2B0AD163782A2B32D1039B0234B9
:10660C001A1D1B68039243EAE3730593DFF8B490F9
:10661C0003224846217800F01FFA38B14022049B2F
:10662C00A0EB0900824013430134049314F8011BBE
:10663C00062225488DF8281000F00EFA002835D0D7
:10664C00224818BB039B073323F00703083303933B
:10665C00099B034409936CE70C4601200CFB0232A6
:10666C00AAE700234FF00A0C194601340593204683
:10667C0010F8012B303A092A03D9002BC6D005910A
:10668C00C4E7044601230CFB0121F0E703AB0093A4
:10669C002A4630460E4B04A9AFF30080421CD7D1DA
:1066AC00AB895B063FF532AF099831E703AB00933A
:1066BC002A463046064B04A900F07EF8EEE700BFF0
:1066CC00686C00086E6C0008726C0008000000001A
:1066DC00316400082DE9F047164698468A680B6924
:1066EC0007469342B8BF1346336091F843200C46DB
:1066FC00DDF820900AB1013333602368990642BF5C
:10670C00336802333360256815F0060506D104F1B1
:10671C00190AE36832689B1AAB422BDC94F84330BD
:10672C002268003B18BF0123920630D441463846FC
:10673C0004F14302C847013023D02368226903F0D7
:10674C000603042B14BF002533684FF0000608BF66
:10675C00E56804F11A0408BFED1A54F8123C08BF9E
:10676C0025EAE5759342C4BF9B1AED18B5421AD1C0
:10677C00002008E00123524641463846C847013004
:10678C0003D14FF0FF30BDE8F0870135C1E7302071
:10679C00E11881F843005A1C94F845102244023346
:1067AC0082F84310C2E70123224641463846C847C7
:1067BC000130E6D00136D9E72DE9F0430D7E85B0E6
:1067CC00782D904607460C4699460C9E01F14302E3
:1067DC0007D8622D0AD8002D00F0D780582D00F074
:1067EC00BC8004F1420684F842503BE0A5F16303FF
:1067FC00152BF6D801A151F823F000BF61680008F1
:10680C0075680008EF670008EF670008EF6700087D
:10681C00EF67000875680008EF670008EF6700086D
:10682C00EF670008EF6700087D6900089F680008A3
:10683C002F690008EF670008EF6700089F690008E0
:10684C00EF6700089F680008EF670008EF67000813
:10685C003769000833681A1D1B68326004F1420660
:10686C0084F842300123A1E033682068191D31609F
:10687C00060601D51D6803E04506FBD5B3F90050AB
:10688C00002D03DA2D236D4284F843300A235B4834
:10689C0011E021683368080653F8045B02D44906FA
:1068AC0048BFADB23360237E54486F2B5CD10823B4
:1068BC00002184F843106668002EA66005DB216871
:1068CC002E4321F00401216050D01646B5FBF3F1A4
:1068DC0003FB115C10F80CC006F801CDAC46634507
:1068EC000D46F3D9082B0BD12368DB0708D5236998
:1068FC0061689942DEBF302306F8013C06F1FF3691
:10690C00921B2261434621463846CDF8009003AADB
:10691C00FFF7E0FE01304ED14FF0FF3005B0BDE87F
:10692C00F083236843F0200323607825344884F8EF
:10693C0045502368316813F0800F51F8045B03D184
:10694C0013F0400F18BFADB23160D90744BF43F00C
:10695C00200323601DB11023AAE72848E7E723682A
:10696C0023F020032360F6E70A23A1E71646B9E7D4
:10697C0033682568181D616930602E061B6801D5C7
:10698C00196002E06806FBD51980002316462361C6
:10699C00B8E7336800211A1D32601E686268304601
:1069AC0000F05AF808B1801B606063682361002313
:1069BC0084F84330A6E73246414638462369C84737
:1069CC000130A9D023689B0713D4E068039B98423D
:1069DC00B8BF1846A2E70123324641463846C8479D
:1069EC00013099D00135E36803995B1AAB42F2DCB4
:1069FC00EBE7002504F11906F5E700BF796C0008F8
:106A0C008A6C0008884210B501EB020402D984425A
:106A1C00234607D8431EA14207D011F8012B03F8D7
:106A2C00012FF8E70244824200D110BD13F8011D7A
:106A3C0002F8011DF7E7000038B50023054D0446A8
:106A4C0008462B6000F04CF8431C02D12B6803B1B4
:106A5C00236038BDE40D0020034610B5C9B20244D2
:106A6C009342184601D1002003E0047801338C4294
:106A7C00F6D110BD2DE9F041074614460D4621B95B
:106A8C001146BDE8F041FFF741BC2AB9FFF7D4FB32
:106A9C0025462846BDE8F08100F01AF884420646E7
:106AAC0002D8B4EB500FF4D821463846FFF72EFC31
:106ABC00804608B94546ECE7B4422246294628BF31
:106ACC003246FFF7ABFB29463846FFF7B5FBF1E73B
:106ADC0051F8043C181F002BBCBF0B58C018704752
:106AEC00044A05491368002B08BF0B461844106074
:106AFC0018467047F40D0020F80D0020F8B500BFC3
:106B0C00F8BC08BC9E467047F8B500BFF8BC08BC82
:046B1C009E467047DA
:106B20003D3D3D3D3D20573235513332204649529F
:106B3000535420323536204259544553203D3D3D73
:106B40003D3D0D0A000000002530325820000000B5
:106B50000D0A00003D3D3D3D3D20454E442044553D
:106B60004D50203D3D3D3D3D0D0A000050524F43EC
:106B70004553534F5220494E49540D0A000000001E
:106B800057726974696E6720256420627974657331
:106B900020746F2030782530366C580D0A000000C4
:106BA000577269746520646F6E650D0A00000000FD
:106BB0004F54415F424547494E0000002573000095
:106BC0004F54415F424547494E5F41434B0A0000E5
:106BD0004F54415F53495A453A0000000D0A53494A
:106BE0005A452049533A20256C750D0A00000000D3
:106BF0004F54415F53495A455F41434B0A000000DF
:106C00004F54415F454E4400000203180004030442
:106C100000C201000000000000000C0000000000A5
:106C20002500000110000310A00003184000030419
:106C30000000040100000000000000020800000045
:106C40000700000000000000000000000102030433
:106C50000607080900000000010203040102030402
:106C60000607080902040608232D302B2000686C53
:106C70004C0065666745464700303132333435365F
:106C80003738394142434445460030313233343598
:0C6C9000363738396162636465660000C5
:046C9C007541000836
:046CA0004D4100085A
:106CA40000A24A040800002000000000AC0C0020F0
:106CB400140D00207C0D00200000000000000000E6
:106CC40000000000000000000000000000000000C0
:106CD40000000000000000000000000000000000B0
:106CE40000000000000000000000000000000000A0
:046CF400000000009C
:04000005080060C9C6
:00000001FF
